{
  "contractName": "Election",
  "abi": [
    {
      "inputs": [],
      "stateMutability": "nonpayable",
      "type": "constructor"
    },
    {
      "anonymous": false,
      "inputs": [
        {
          "indexed": true,
          "internalType": "bytes32",
          "name": "aadhaarHash",
          "type": "bytes32"
        },
        {
          "indexed": false,
          "internalType": "uint256",
          "name": "candidateId",
          "type": "uint256"
        }
      ],
      "name": "VoteCast",
      "type": "event"
    },
    {
      "anonymous": false,
      "inputs": [
        {
          "indexed": true,
          "internalType": "bytes32",
          "name": "aadhaarHash",
          "type": "bytes32"
        }
      ],
      "name": "VoterRegistered",
      "type": "event"
    },
    {
      "anonymous": false,
      "inputs": [],
      "name": "VotingClosed",
      "type": "event"
    },
    {
      "inputs": [],
      "name": "admin",
      "outputs": [
        {
          "internalType": "address",
          "name": "",
          "type": "address"
        }
      ],
      "stateMutability": "view",
      "type": "function",
      "constant": true
    },
    {
      "inputs": [],
      "name": "candidateCount",
      "outputs": [
        {
          "internalType": "uint256",
          "name": "",
          "type": "uint256"
        }
      ],
      "stateMutability": "view",
      "type": "function",
      "constant": true
    },
    {
      "inputs": [
        {
          "internalType": "uint256",
          "name": "",
          "type": "uint256"
        }
      ],
      "name": "candidates",
      "outputs": [
        {
          "internalType": "string",
          "name": "name",
          "type": "string"
        },
        {
          "internalType": "uint256",
          "name": "voteCount",
          "type": "uint256"
        }
      ],
      "stateMutability": "view",
      "type": "function",
      "constant": true
    },
    {
      "inputs": [],
      "name": "votingClosed",
      "outputs": [
        {
          "internalType": "bool",
          "name": "",
          "type": "bool"
        }
      ],
      "stateMutability": "view",
      "type": "function",
      "constant": true
    },
    {
      "inputs": [
        {
          "internalType": "string",
          "name": "name",
          "type": "string"
        }
      ],
      "name": "addCandidate",
      "outputs": [],
      "stateMutability": "nonpayable",
      "type": "function"
    },
    {
      "inputs": [],
      "name": "closeVoting",
      "outputs": [],
      "stateMutability": "nonpayable",
      "type": "function"
    },
    {
      "inputs": [
        {
          "internalType": "bytes32",
          "name": "aadhaarHash",
          "type": "bytes32"
        }
      ],
      "name": "registerVoter",
      "outputs": [],
      "stateMutability": "nonpayable",
      "type": "function"
    },
    {
      "inputs": [
        {
          "internalType": "bytes32",
          "name": "aadhaarHash",
          "type": "bytes32"
        }
      ],
      "name": "isRegistered",
      "outputs": [
        {
          "internalType": "bool",
          "name": "",
          "type": "bool"
        }
      ],
      "stateMutability": "view",
      "type": "function",
      "constant": true
    },
    {
      "inputs": [
        {
          "internalType": "bytes32",
          "name": "aadhaarHash",
          "type": "bytes32"
        }
      ],
      "name": "hasAlreadyVoted",
      "outputs": [
        {
          "internalType": "bool",
          "name": "",
          "type": "bool"
        }
      ],
      "stateMutability": "view",
      "type": "function",
      "constant": true
    },
    {
      "inputs": [
        {
          "internalType": "bytes32",
          "name": "aadhaarHash",
          "type": "bytes32"
        },
        {
          "internalType": "uint256",
          "name": "candidateId",
          "type": "uint256"
        }
      ],
      "name": "castVote",
      "outputs": [],
      "stateMutability": "nonpayable",
      "type": "function"
    },
    {
      "inputs": [
        {
          "internalType": "uint256",
          "name": "candidateId",
          "type": "uint256"
        }
      ],
      "name": "getVoteCount",
      "outputs": [
        {
          "internalType": "uint256",
          "name": "",
          "type": "uint256"
        }
      ],
      "stateMutability": "view",
      "type": "function",
      "constant": true
    }
  ],
  "bytecode": "0x608060405234801561000f575f80fd5b50335f806101000a81548173ffffffffffffffffffffffffffffffffffffffff021916908373ffffffffffffffffffffffffffffffffffffffff1602179055506112888061005c5f395ff3fe608060405234801561000f575f80fd5b50600436106100a7575f3560e01c806375a12d721161006f57806375a12d7214610176578063793c5d2114610192578063a9a981a3146101ae578063b2c2f2e8146101cc578063c631b292146101fc578063f851a44014610206576100a7565b806303d341ee146100ab5780632479ecb8146100db57806327258b22146100f95780633477ee2e14610129578063462e91ec1461015a575b5f80fd5b6100c560048036038101906100c091906108da565b610224565b6040516100d2919061091f565b60405180910390f35b6100e361024a565b6040516100f0919061091f565b60405180910390f35b610113600480360381019061010e91906108da565b61025c565b604051610120919061091f565b60405180910390f35b610143600480360381019061013e919061096b565b610282565b604051610151929190610a2f565b60405180910390f35b610174600480360381019061016f9190610b89565b610328565b005b610190600480360381019061018b9190610bd0565b610418565b005b6101ac60048036038101906101a791906108da565b6105f4565b005b6101b6610737565b6040516101c39190610c0e565b60405180910390f35b6101e660048036038101906101e1919061096b565b61073d565b6040516101f39190610c0e565b60405180910390f35b61020461079e565b005b61020e610873565b60405161021b9190610c66565b60405180910390f35b5f60025f8381526020019081526020015f205f9054906101000a900460ff169050919050565b60055f9054906101000a900460ff1681565b5f60015f8381526020019081526020015f205f9054906101000a900460ff169050919050565b6003602052805f5260405f205f91509050805f0180546102a190610cac565b80601f01602080910402602001604051908101604052809291908181526020018280546102cd90610cac565b80156103185780601f106102ef57610100808354040283529160200191610318565b820191905f5260205f20905b8154815290600101906020018083116102fb57829003601f168201915b5050505050908060010154905082565b5f8054906101000a900473ffffffffffffffffffffffffffffffffffffffff1673ffffffffffffffffffffffffffffffffffffffff163373ffffffffffffffffffffffffffffffffffffffff16146103b5576040517f08c379a00000000000000000000000000000000000000000000000000000000081526004016103ac90610d4c565b60405180910390fd5b60405180604001604052808281526020015f81525060035f60045481526020019081526020015f205f820151815f0190816103f09190610f07565b506020820151816001015590505060045f81548092919061041090611003565b919050555050565b60055f9054906101000a900460ff1615610467576040517f08c379a000000000000000000000000000000000000000000000000000000000815260040161045e90611094565b60405180910390fd5b60015f8381526020019081526020015f205f9054906101000a900460ff166104c4576040517f08c379a00000000000000000000000000000000000000000000000000000000081526004016104bb906110fc565b60405180910390fd5b60025f8381526020019081526020015f205f9054906101000a900460ff1615610522576040517f08c379a000000000000000000000000000000000000000000000000000000000815260040161051990611164565b60405180910390fd5b6004548110610566576040517f08c379a000000000000000000000000000000000000000000000000000000000815260040161055d906111cc565b60405180910390fd5b60035f8281526020019081526020015f206001015f81548092919061058a90611003565b9190505550600160025f8481526020019081526020015f205f6101000a81548160ff021916908315150217905550817fd10f6697fe785cf6ab300b0a28e7b2403b8742966ec5535806af5b24613611a4826040516105e89190610c0e565b60405180910390a25050565b5f8054906101000a900473ffffffffffffffffffffffffffffffffffffffff1673ffffffffffffffffffffffffffffffffffffffff163373ffffffffffffffffffffffffffffffffffffffff1614610681576040517f08c379a000000000000000000000000000000000000000000000000000000000815260040161067890610d4c565b60405180910390fd5b60015f8281526020019081526020015f205f9054906101000a900460ff16156106df576040517f08c379a00000000000000000000000000000000000000000000000000000000081526004016106d690611234565b60405180910390fd5b6001805f8381526020019081526020015f205f6101000a81548160ff021916908315150217905550807fe1e93aab4d6cae623ae197f9c4d63ac5eede4c69f9d0fbc92e4dbb0766abd11560405160405180910390a250565b60045481565b5f6004548210610782576040517f08c379a0000000000000000000000000000000000000000000000000000000008152600401610779906111cc565b60405180910390fd5b60035f8381526020019081526020015f20600101549050919050565b5f8054906101000a900473ffffffffffffffffffffffffffffffffffffffff1673ffffffffffffffffffffffffffffffffffffffff163373ffffffffffffffffffffffffffffffffffffffff161461082b576040517f08c379a000000000000000000000000000000000000000000000000000000000815260040161082290610d4c565b60405180910390fd5b600160055f6101000a81548160ff0219169083151502179055507f66b6cb4a09abc3bf1cacc3c67420258856ffdad0deba9078cbd1658957b5021860405160405180910390a1565b5f8054906101000a900473ffffffffffffffffffffffffffffffffffffffff1681565b5f604051905090565b5f80fd5b5f80fd5b5f819050919050565b6108b9816108a7565b81146108c3575f80fd5b50565b5f813590506108d4816108b0565b92915050565b5f602082840312156108ef576108ee61089f565b5b5f6108fc848285016108c6565b91505092915050565b5f8115159050919050565b61091981610905565b82525050565b5f6020820190506109325f830184610910565b92915050565b5f819050919050565b61094a81610938565b8114610954575f80fd5b50565b5f8135905061096581610941565b92915050565b5f602082840312156109805761097f61089f565b5b5f61098d84828501610957565b91505092915050565b5f81519050919050565b5f82825260208201905092915050565b5f5b838110156109cd5780820151818401526020810190506109b2565b5f8484015250505050565b5f601f19601f8301169050919050565b5f6109f282610996565b6109fc81856109a0565b9350610a0c8185602086016109b0565b610a15816109d8565b840191505092915050565b610a2981610938565b82525050565b5f6040820190508181035f830152610a4781856109e8565b9050610a566020830184610a20565b9392505050565b5f80fd5b5f80fd5b7f4e487b71000000000000000000000000000000000000000000000000000000005f52604160045260245ffd5b610a9b826109d8565b810181811067ffffffffffffffff82111715610aba57610ab9610a65565b5b80604052505050565b5f610acc610896565b9050610ad88282610a92565b919050565b5f67ffffffffffffffff821115610af757610af6610a65565b5b610b00826109d8565b9050602081019050919050565b828183375f83830152505050565b5f610b2d610b2884610add565b610ac3565b905082815260208101848484011115610b4957610b48610a61565b5b610b54848285610b0d565b509392505050565b5f82601f830112610b7057610b6f610a5d565b5b8135610b80848260208601610b1b565b91505092915050565b5f60208284031215610b9e57610b9d61089f565b5b5f82013567ffffffffffffffff811115610bbb57610bba6108a3565b5b610bc784828501610b5c565b91505092915050565b5f8060408385031215610be657610be561089f565b5b5f610bf3858286016108c6565b9250506020610c0485828601610957565b9150509250929050565b5f602082019050610c215f830184610a20565b92915050565b5f73ffffffffffffffffffffffffffffffffffffffff82169050919050565b5f610c5082610c27565b9050919050565b610c6081610c46565b82525050565b5f602082019050610c795f830184610c57565b92915050565b7f4e487b71000000000000000000000000000000000000000000000000000000005f52602260045260245ffd5b5f6002820490506001821680610cc357607f821691505b602082108103610cd657610cd5610c7f565b5b50919050565b7f4f6e6c792061646d696e2063616e20706572666f726d207468697320616374695f8201527f6f6e2e0000000000000000000000000000000000000000000000000000000000602082015250565b5f610d366023836109a0565b9150610d4182610cdc565b604082019050919050565b5f6020820190508181035f830152610d6381610d2a565b9050919050565b5f819050815f5260205f209050919050565b5f6020601f8301049050919050565b5f82821b905092915050565b5f60088302610dc67fffffffffffffffffffffffffffffffffffffffffffffffffffffffffffffffff82610d8b565b610dd08683610d8b565b95508019841693508086168417925050509392505050565b5f819050919050565b5f610e0b610e06610e0184610938565b610de8565b610938565b9050919050565b5f819050919050565b610e2483610df1565b610e38610e3082610e12565b848454610d97565b825550505050565b5f90565b610e4c610e40565b610e57818484610e1b565b505050565b5b81811015610e7a57610e6f5f82610e44565b600181019050610e5d565b5050565b601f821115610ebf57610e9081610d6a565b610e9984610d7c565b81016020851015610ea8578190505b610ebc610eb485610d7c565b830182610e5c565b50505b505050565b5f82821c905092915050565b5f610edf5f1984600802610ec4565b1980831691505092915050565b5f610ef78383610ed0565b9150826002028217905092915050565b610f1082610996565b67ffffffffffffffff811115610f2957610f28610a65565b5b610f338254610cac565b610f3e828285610e7e565b5f60209050601f831160018114610f6f575f8415610f5d578287015190505b610f678582610eec565b865550610fce565b601f198416610f7d86610d6a565b5f5b82811015610fa457848901518255600182019150602085019450602081019050610f7f565b86831015610fc15784890151610fbd601f891682610ed0565b8355505b6001600288020188555050505b505050505050565b7f4e487b71000000000000000000000000000000000000000000000000000000005f52601160045260245ffd5b5f61100d82610938565b91507fffffffffffffffffffffffffffffffffffffffffffffffffffffffffffffffff820361103f5761103e610fd6565b5b600182019050919050565b7f566f74696e672068617320656e6465642e0000000000000000000000000000005f82015250565b5f61107e6011836109a0565b91506110898261104a565b602082019050919050565b5f6020820190508181035f8301526110ab81611072565b9050919050565b7f566f746572206e6f7420726567697374657265642e00000000000000000000005f82015250565b5f6110e66015836109a0565b91506110f1826110b2565b602082019050919050565b5f6020820190508181035f830152611113816110da565b9050919050565b7f566f74657220616c726561647920766f7465642e0000000000000000000000005f82015250565b5f61114e6014836109a0565b91506111598261111a565b602082019050919050565b5f6020820190508181035f83015261117b81611142565b9050919050565b7f496e76616c69642063616e6469646174652e00000000000000000000000000005f82015250565b5f6111b66012836109a0565b91506111c182611182565b602082019050919050565b5f6020820190508181035f8301526111e3816111aa565b9050919050565b7f566f74657220616c726561647920726567697374657265642e000000000000005f82015250565b5f61121e6019836109a0565b9150611229826111ea565b602082019050919050565b5f6020820190508181035f83015261124b81611212565b905091905056fea2646970667358221220c0b1c79984f15bdd6d3a60b9556a96e4cd029b2546ad0b2fe9adc5393f960d1864736f6c63430008150033",
  "immutableReferences": {},
  "source": "// SPDX-License-Identifier: MIT\r\npragma solidity ^0.8.21;\r\n\r\ncontract Election {\r\n    address public admin;\r\n\r\n    struct Candidate {\r\n        string name;\r\n        uint voteCount;\r\n    }\r\n\r\n    mapping(bytes32 => bool) private registeredVoters;\r\n    mapping(bytes32 => bool) private hasVoted;\r\n    mapping(uint => Candidate) public candidates;\r\n    uint public candidateCount;\r\n    bool public votingClosed;\r\n\r\n    event VoterRegistered(bytes32 indexed aadhaarHash);\r\n    event VoteCast(bytes32 indexed aadhaarHash, uint candidateId);\r\n    event VotingClosed();\r\n\r\n    modifier onlyAdmin() {\r\n        require(msg.sender == admin, \"Only admin can perform this action.\");\r\n        _;\r\n    }\r\n\r\n    modifier votingOpen() {\r\n        require(!votingClosed, \"Voting has ended.\");\r\n        _;\r\n    }\r\n\r\n    constructor() {\r\n        admin = msg.sender;\r\n    }\r\n\r\n    // ---------- Admin Controls ----------\r\n\r\n    function addCandidate(string memory name) external onlyAdmin {\r\n        candidates[candidateCount] = Candidate(name, 0);\r\n        candidateCount++;\r\n    }\r\n\r\n    function closeVoting() external onlyAdmin {\r\n        votingClosed = true;\r\n        emit VotingClosed();\r\n    }\r\n\r\n    // ---------- Voter Management ----------\r\n\r\n    function registerVoter(bytes32 aadhaarHash) external onlyAdmin {\r\n        require(!registeredVoters[aadhaarHash], \"Voter already registered.\");\r\n        registeredVoters[aadhaarHash] = true;\r\n        emit VoterRegistered(aadhaarHash);\r\n    }\r\n\r\n    function isRegistered(bytes32 aadhaarHash) external view returns (bool) {\r\n        return registeredVoters[aadhaarHash];\r\n    }\r\n\r\n    function hasAlreadyVoted(bytes32 aadhaarHash) external view returns (bool) {\r\n        return hasVoted[aadhaarHash];\r\n    }\r\n\r\n    // ---------- Voting Logic ----------\r\n\r\n    function castVote(bytes32 aadhaarHash, uint candidateId) external votingOpen {\r\n        require(registeredVoters[aadhaarHash], \"Voter not registered.\");\r\n        require(!hasVoted[aadhaarHash], \"Voter already voted.\");\r\n        require(candidateId < candidateCount, \"Invalid candidate.\");\r\n\r\n        candidates[candidateId].voteCount++;\r\n        hasVoted[aadhaarHash] = true;\r\n        emit VoteCast(aadhaarHash, candidateId);\r\n    }\r\n\r\n    function getVoteCount(uint candidateId) external view returns (uint) {\r\n        require(candidateId < candidateCount, \"Invalid candidate.\");\r\n        return candidates[candidateId].voteCount;\r\n    }\r\n}\r\n",
  "sourcePath": "D:\\personal-project\\online\\blockchain\\contracts\\Election.sol",
  "compiler": {
    "name": "solc",
    "version": "0.8.21+commit.d9974bed.Emscripten.clang"
  },
  "schemaVersion": "3.4.16",
  "updatedAt": "2025-04-14T17:36:01.063Z",
  "networkType": "ethereum",
  "devdoc": {
    "kind": "dev",
    "methods": {},
    "version": 1
  },
  "userdoc": {
    "kind": "user",
    "methods": {},
    "version": 1
  }
}