{
  "contractName": "VoterAuth",
  "abi": [
    {
      "inputs": [],
      "stateMutability": "nonpayable",
      "type": "constructor"
    },
    {
      "anonymous": false,
      "inputs": [
        {
          "indexed": true,
          "internalType": "bytes32",
          "name": "aadhaarHash",
          "type": "bytes32"
        }
      ],
      "name": "VoteStatusUpdated",
      "type": "event"
    },
    {
      "anonymous": false,
      "inputs": [
        {
          "indexed": true,
          "internalType": "bytes32",
          "name": "aadhaarHash",
          "type": "bytes32"
        }
      ],
      "name": "VoterRegistered",
      "type": "event"
    },
    {
      "inputs": [],
      "name": "admin",
      "outputs": [
        {
          "internalType": "address",
          "name": "",
          "type": "address"
        }
      ],
      "stateMutability": "view",
      "type": "function",
      "constant": true
    },
    {
      "inputs": [
        {
          "internalType": "bytes32",
          "name": "aadhaarHash",
          "type": "bytes32"
        }
      ],
      "name": "registerVoter",
      "outputs": [],
      "stateMutability": "nonpayable",
      "type": "function"
    },
    {
      "inputs": [
        {
          "internalType": "bytes32",
          "name": "aadhaarHash",
          "type": "bytes32"
        }
      ],
      "name": "isRegistered",
      "outputs": [
        {
          "internalType": "bool",
          "name": "",
          "type": "bool"
        }
      ],
      "stateMutability": "view",
      "type": "function",
      "constant": true
    },
    {
      "inputs": [
        {
          "internalType": "bytes32",
          "name": "aadhaarHash",
          "type": "bytes32"
        }
      ],
      "name": "hasAlreadyVoted",
      "outputs": [
        {
          "internalType": "bool",
          "name": "",
          "type": "bool"
        }
      ],
      "stateMutability": "view",
      "type": "function",
      "constant": true
    },
    {
      "inputs": [
        {
          "internalType": "bytes32",
          "name": "aadhaarHash",
          "type": "bytes32"
        }
      ],
      "name": "markAsVoted",
      "outputs": [],
      "stateMutability": "nonpayable",
      "type": "function"
    }
  ],
  "bytecode": "0x608060405234801561000f575f80fd5b50335f806101000a81548173ffffffffffffffffffffffffffffffffffffffff021916908373ffffffffffffffffffffffffffffffffffffffff16021790555061075b8061005c5f395ff3fe608060405234801561000f575f80fd5b5060043610610055575f3560e01c806303d341ee1461005957806327258b221461008957806341f0a396146100b9578063793c5d21146100d5578063f851a440146100f1575b5f80fd5b610073600480360381019061006e9190610499565b61010f565b60405161008091906104de565b60405180910390f35b6100a3600480360381019061009e9190610499565b610135565b6040516100b091906104de565b60405180910390f35b6100d360048036038101906100ce9190610499565b61015b565b005b6100ef60048036038101906100ea9190610499565b6102fc565b005b6100f961043f565b6040516101069190610536565b60405180910390f35b5f60025f8381526020019081526020015f205f9054906101000a900460ff169050919050565b5f60015f8381526020019081526020015f205f9054906101000a900460ff169050919050565b5f8054906101000a900473ffffffffffffffffffffffffffffffffffffffff1673ffffffffffffffffffffffffffffffffffffffff163373ffffffffffffffffffffffffffffffffffffffff16146101e8576040517f08c379a00000000000000000000000000000000000000000000000000000000081526004016101df906105cf565b60405180910390fd5b60015f8281526020019081526020015f205f9054906101000a900460ff16610245576040517f08c379a000000000000000000000000000000000000000000000000000000000815260040161023c90610637565b60405180910390fd5b60025f8281526020019081526020015f205f9054906101000a900460ff16156102a3576040517f08c379a000000000000000000000000000000000000000000000000000000000815260040161029a9061069f565b60405180910390fd5b600160025f8381526020019081526020015f205f6101000a81548160ff021916908315150217905550807f2b7fa1cc09007d901a851093ab1a3eca854af28b3450359a0b0264f5ef8a824f60405160405180910390a250565b5f8054906101000a900473ffffffffffffffffffffffffffffffffffffffff1673ffffffffffffffffffffffffffffffffffffffff163373ffffffffffffffffffffffffffffffffffffffff1614610389576040517f08c379a0000000000000000000000000000000000000000000000000000000008152600401610380906105cf565b60405180910390fd5b60015f8281526020019081526020015f205f9054906101000a900460ff16156103e7576040517f08c379a00000000000000000000000000000000000000000000000000000000081526004016103de90610707565b60405180910390fd5b6001805f8381526020019081526020015f205f6101000a81548160ff021916908315150217905550807fe1e93aab4d6cae623ae197f9c4d63ac5eede4c69f9d0fbc92e4dbb0766abd11560405160405180910390a250565b5f8054906101000a900473ffffffffffffffffffffffffffffffffffffffff1681565b5f80fd5b5f819050919050565b61047881610466565b8114610482575f80fd5b50565b5f813590506104938161046f565b92915050565b5f602082840312156104ae576104ad610462565b5b5f6104bb84828501610485565b91505092915050565b5f8115159050919050565b6104d8816104c4565b82525050565b5f6020820190506104f15f8301846104cf565b92915050565b5f73ffffffffffffffffffffffffffffffffffffffff82169050919050565b5f610520826104f7565b9050919050565b61053081610516565b82525050565b5f6020820190506105495f830184610527565b92915050565b5f82825260208201905092915050565b7f4f6e6c792061646d696e2063616e20706572666f726d207468697320616374695f8201527f6f6e2e0000000000000000000000000000000000000000000000000000000000602082015250565b5f6105b960238361054f565b91506105c48261055f565b604082019050919050565b5f6020820190508181035f8301526105e6816105ad565b9050919050565b7f566f746572206e6f7420726567697374657265642e00000000000000000000005f82015250565b5f61062160158361054f565b915061062c826105ed565b602082019050919050565b5f6020820190508181035f83015261064e81610615565b9050919050565b7f566f74657220616c726561647920766f7465642e0000000000000000000000005f82015250565b5f61068960148361054f565b915061069482610655565b602082019050919050565b5f6020820190508181035f8301526106b68161067d565b9050919050565b7f566f74657220616c726561647920726567697374657265642e000000000000005f82015250565b5f6106f160198361054f565b91506106fc826106bd565b602082019050919050565b5f6020820190508181035f83015261071e816106e5565b905091905056fea2646970667358221220d1fc7085606e3f2eff04ca2d48fb9b1da1e4286ab7ac894c28036e870836968064736f6c63430008150033",
  "immutableReferences": {},
  "source": "// SPDX-License-Identifier: MIT\r\npragma solidity ^0.8.21;\r\n\r\ncontract VoterAuth {\r\n    address public admin;\r\n\r\n    mapping(bytes32 => bool) private registeredVoters;\r\n    mapping(bytes32 => bool) private hasVoted;\r\n\r\n    event VoterRegistered(bytes32 indexed aadhaarHash);\r\n    event VoteStatusUpdated(bytes32 indexed aadhaarHash);\r\n\r\n    modifier onlyAdmin() {\r\n        require(msg.sender == admin, \"Only admin can perform this action.\");\r\n        _;\r\n    }\r\n\r\n    constructor() {\r\n        admin = msg.sender;\r\n    }\r\n\r\n    function registerVoter(bytes32 aadhaarHash) external onlyAdmin {\r\n        require(!registeredVoters[aadhaarHash], \"Voter already registered.\");\r\n        registeredVoters[aadhaarHash] = true;\r\n        emit VoterRegistered(aadhaarHash);\r\n    }\r\n\r\n    function isRegistered(bytes32 aadhaarHash) external view returns (bool) {\r\n        return registeredVoters[aadhaarHash];\r\n    }\r\n\r\n    function hasAlreadyVoted(bytes32 aadhaarHash) external view returns (bool) {\r\n        return hasVoted[aadhaarHash];\r\n    }\r\n\r\n    function markAsVoted(bytes32 aadhaarHash) external onlyAdmin {\r\n        require(registeredVoters[aadhaarHash], \"Voter not registered.\");\r\n        require(!hasVoted[aadhaarHash], \"Voter already voted.\");\r\n        hasVoted[aadhaarHash] = true;\r\n        emit VoteStatusUpdated(aadhaarHash);\r\n    }\r\n}\r\n",
  "sourcePath": "D:\\personal-project\\online\\blockchain\\contracts\\VoterAuth.sol",
  "compiler": {
    "name": "solc",
    "version": "0.8.21+commit.d9974bed.Emscripten.clang"
  },
  "schemaVersion": "3.4.16",
  "updatedAt": "2025-04-14T11:19:44.801Z",
  "networkType": "ethereum",
  "devdoc": {
    "kind": "dev",
    "methods": {},
    "version": 1
  },
  "userdoc": {
    "kind": "user",
    "methods": {},
    "version": 1
  }
}